{
  "_format": "hh-sol-artifact-1",
  "contractName": "IDRegistry",
  "sourceName": "contracts/IDRegistry.sol",
  "abi": [
    {
      "inputs": [
        {
          "internalType": "string",
          "name": "idNumber",
          "type": "string"
        },
        {
          "internalType": "bytes32",
          "name": "idHash",
          "type": "bytes32"
        }
      ],
      "name": "storeID",
      "outputs": [],
      "stateMutability": "nonpayable",
      "type": "function"
    },
    {
      "inputs": [
        {
          "internalType": "string",
          "name": "idNumber",
          "type": "string"
        },
        {
          "internalType": "bytes32",
          "name": "idHash",
          "type": "bytes32"
        }
      ],
      "name": "verifyID",
      "outputs": [
        {
          "internalType": "bool",
          "name": "",
          "type": "bool"
        }
      ],
      "stateMutability": "view",
      "type": "function"
    }
  ],
  "bytecode": "0x608060405234801561001057600080fd5b506103b9806100206000396000f3fe608060405234801561001057600080fd5b50600436106100365760003560e01c80634e7627651461003b578063a226a4f814610057575b600080fd5b61005560048036038101906100509190610269565b610087565b005b610071600480360381019061006c9190610269565b6100ae565b60405161007e91906102e0565b60405180910390f35b80600083604051610098919061036c565b9081526020016040518091039020819055505050565b6000816000846040516100c1919061036c565b90815260200160405180910390205414905092915050565b6000604051905090565b600080fd5b600080fd5b600080fd5b600080fd5b6000601f19601f8301169050919050565b7f4e487b7100000000000000000000000000000000000000000000000000000000600052604160045260246000fd5b610140826100f7565b810181811067ffffffffffffffff8211171561015f5761015e610108565b5b80604052505050565b60006101726100d9565b905061017e8282610137565b919050565b600067ffffffffffffffff82111561019e5761019d610108565b5b6101a7826100f7565b9050602081019050919050565b82818337600083830152505050565b60006101d66101d184610183565b610168565b9050828152602081018484840111156101f2576101f16100f2565b5b6101fd8482856101b4565b509392505050565b600082601f83011261021a576102196100ed565b5b813561022a8482602086016101c3565b91505092915050565b6000819050919050565b61024681610233565b811461025157600080fd5b50565b6000813590506102638161023d565b92915050565b600080604083850312156102805761027f6100e3565b5b600083013567ffffffffffffffff81111561029e5761029d6100e8565b5b6102aa85828601610205565b92505060206102bb85828601610254565b9150509250929050565b60008115159050919050565b6102da816102c5565b82525050565b60006020820190506102f560008301846102d1565b92915050565b600081519050919050565b600081905092915050565b60005b8381101561032f578082015181840152602081019050610314565b60008484015250505050565b6000610346826102fb565b6103508185610306565b9350610360818560208601610311565b80840191505092915050565b6000610378828461033b565b91508190509291505056fea2646970667358221220c4bf08593d9bb177c44bc9919985761179d16de8c3ae9027e45ca89f25461bcd64736f6c63430008140033",
  "linkReferences": {},
  "deployedLinkReferences": {}
}