{
  "_format": "hh-sol-artifact-1",
  "contractName": "IDRegistry",
  "sourceName": "contracts/IDRegistry.sol",
  "abi": [
    {
      "anonymous": false,
      "inputs": [
        {
          "indexed": true,
          "internalType": "string",
          "name": "idNumber",
          "type": "string"
        },
        {
          "indexed": false,
          "internalType": "bytes32",
          "name": "idHash",
          "type": "bytes32"
        }
      ],
      "name": "IDStored",
      "type": "event"
    },
    {
      "inputs": [
        {
          "internalType": "string",
          "name": "",
          "type": "string"
        }
      ],
      "name": "idHashes",
      "outputs": [
        {
          "internalType": "bytes32",
          "name": "",
          "type": "bytes32"
        }
      ],
      "stateMutability": "view",
      "type": "function"
    },
    {
      "inputs": [
        {
          "internalType": "string",
          "name": "idNumber",
          "type": "string"
        },
        {
          "internalType": "bytes32",
          "name": "idHash",
          "type": "bytes32"
        }
      ],
      "name": "storeIDHash",
      "outputs": [],
      "stateMutability": "nonpayable",
      "type": "function"
    },
    {
      "inputs": [
        {
          "internalType": "string",
          "name": "idNumber",
          "type": "string"
        },
        {
          "internalType": "bytes32",
          "name": "hashToCheck",
          "type": "bytes32"
        }
      ],
      "name": "verifyID",
      "outputs": [
        {
          "internalType": "bool",
          "name": "",
          "type": "bool"
        }
      ],
      "stateMutability": "view",
      "type": "function"
    }
  ],
  "bytecode": "0x608060405234801561001057600080fd5b506104e2806100206000396000f3fe608060405234801561001057600080fd5b50600436106100415760003560e01c80635ad47efc1461004657806389a0797414610076578063a226a4f814610092575b600080fd5b610060600480360381019061005b91906102e9565b6100c2565b60405161006d919061034b565b60405180910390f35b610090600480360381019061008b9190610392565b6100f0565b005b6100ac60048036038101906100a79190610392565b610164565b6040516100b99190610409565b60405180910390f35b6000818051602081018201805184825260208301602085012081835280955050505050506000915090505481565b806000836040516101019190610495565b908152602001604051809103902081905550816040516101219190610495565b60405180910390207fe2e8b0c3d7fa102131c93c2a22c358937788db653fc736a024fadf2972e27ca582604051610158919061034b565b60405180910390a25050565b6000816000846040516101779190610495565b90815260200160405180910390205414905092915050565b6000604051905090565b600080fd5b600080fd5b600080fd5b600080fd5b6000601f19601f8301169050919050565b7f4e487b7100000000000000000000000000000000000000000000000000000000600052604160045260246000fd5b6101f6826101ad565b810181811067ffffffffffffffff82111715610215576102146101be565b5b80604052505050565b600061022861018f565b905061023482826101ed565b919050565b600067ffffffffffffffff821115610254576102536101be565b5b61025d826101ad565b9050602081019050919050565b82818337600083830152505050565b600061028c61028784610239565b61021e565b9050828152602081018484840111156102a8576102a76101a8565b5b6102b384828561026a565b509392505050565b600082601f8301126102d0576102cf6101a3565b5b81356102e0848260208601610279565b91505092915050565b6000602082840312156102ff576102fe610199565b5b600082013567ffffffffffffffff81111561031d5761031c61019e565b5b610329848285016102bb565b91505092915050565b6000819050919050565b61034581610332565b82525050565b6000602082019050610360600083018461033c565b92915050565b61036f81610332565b811461037a57600080fd5b50565b60008135905061038c81610366565b92915050565b600080604083850312156103a9576103a8610199565b5b600083013567ffffffffffffffff8111156103c7576103c661019e565b5b6103d3858286016102bb565b92505060206103e48582860161037d565b9150509250929050565b60008115159050919050565b610403816103ee565b82525050565b600060208201905061041e60008301846103fa565b92915050565b600081519050919050565b600081905092915050565b60005b8381101561045857808201518184015260208101905061043d565b60008484015250505050565b600061046f82610424565b610479818561042f565b935061048981856020860161043a565b80840191505092915050565b60006104a18284610464565b91508190509291505056fea26469706673582212200d6f351e4a02d0827073788c98bd379cd7c2281ca6e076ef4029fad8a2beb1e664736f6c63430008140033",
  "linkReferences": {},
  "deployedLinkReferences": {}
}