{
  "_format": "hh-sol-artifact-1",
  "contractName": "TokenAuth",
  "sourceName": "contracts/Token_Auth.sol",
  "abi": [
    {
      "inputs": [],
      "stateMutability": "nonpayable",
      "type": "constructor"
    },
    {
      "anonymous": false,
      "inputs": [
        {
          "indexed": true,
          "internalType": "bytes32",
          "name": "tokenHash",
          "type": "bytes32"
        }
      ],
      "name": "TokenStored",
      "type": "event"
    },
    {
      "inputs": [
        {
          "internalType": "string",
          "name": "token",
          "type": "string"
        }
      ],
      "name": "storeToken",
      "outputs": [],
      "stateMutability": "nonpayable",
      "type": "function"
    },
    {
      "inputs": [
        {
          "internalType": "string",
          "name": "token",
          "type": "string"
        }
      ],
      "name": "verifyToken",
      "outputs": [
        {
          "internalType": "bool",
          "name": "",
          "type": "bool"
        }
      ],
      "stateMutability": "view",
      "type": "function"
    }
  ],
  "bytecode": "0x60a060405234801561001057600080fd5b50336080526080516102cc61002f600039600060c601526102cc6000f3fe608060405234801561001057600080fd5b50600436106100355760003560e01c8062dea6d61461003a57806383102c4114610061575b600080fd5b61004d610048366004610214565b610076565b604051901515815260200160405180910390f35b61007461006f366004610214565b6100bb565b005b600080838360405160200161008c929190610286565b60408051808303601f19018152918152815160209283012060009081529182905290205460ff16949350505050565b336001600160a01b037f000000000000000000000000000000000000000000000000000000000000000016146101435760405162461bcd60e51b815260206004820152602260248201527f546f6b656e417574683a2063616c6c6572206973206e6f7420746865206f776e60448201526132b960f11b60648201526084015b60405180910390fd5b60008282604051602001610158929190610286565b60408051601f19818403018152918152815160209283012060008181529283905291205490915060ff16156101cf5760405162461bcd60e51b815260206004820152601f60248201527f546f6b656e417574683a20746f6b656e20616c72656164792065786973747300604482015260640161013a565b600081815260208190526040808220805460ff191660011790555182917f51c809d55e8294671356f08079ef3906852333b941d3ba2cd799d3079907010c91a2505050565b6000806020838503121561022757600080fd5b823567ffffffffffffffff8082111561023f57600080fd5b818501915085601f83011261025357600080fd5b81358181111561026257600080fd5b86602082850101111561027457600080fd5b60209290920196919550909350505050565b818382376000910190815291905056fea264697066735822122068fb7e9ad14b5cf76094694af3434cf6281f55112e06bc93709a084c4dd9276364736f6c63430008140033",
  "linkReferences": {},
  "deployedLinkReferences": {}
}